{
  "contractName": "Todolist",
  "abi": [
    {
      "constant": true,
      "inputs": [],
      "name": "tasks",
      "outputs": [
        {
          "internalType": "uint256",
          "name": "",
          "type": "uint256"
        }
      ],
      "payable": false,
      "stateMutability": "view",
      "type": "function"
    }
  ],
  "bytecode": "0x608060405260008055348015601357600080fd5b506084806100226000396000f3fe6080604052348015600f57600080fd5b506004361060285760003560e01c8063c305a6d914602d575b600080fd5b60336049565b6040518082815260200191505060405180910390f35b6000548156fea265627a7a723158201ecc0e5978f9d27d2f56fe85dbbe3a57b8b613bde2971647ca8c8e5f575998ec64736f6c63430005100032",
  "source": "pragma solidity ^0.5.0;\n\ncontract Todolist {\n    // State variable for the Todolist contract\n    uint256 public tasks = 0;\n}\n",
  "sourcePath": "/Users/zubinpratap/Documents/projects/dapp_uni/todolist/contracts/TodoList.sol",
  "compiler": {
    "name": "solc",
    "version": "0.5.16+commit.9c3226ce.Emscripten.clang"
  },
  "schemaVersion": "3.3.4",
  "updatedAt": "2021-03-14T00:52:26.134Z",
  "networkType": "ethereum",
  "devdoc": {
    "methods": {}
  },
  "userdoc": {
    "methods": {}
  }
}